:020000040800F2
:10000000B0210020AD2200083565000899220008C3
:1000100099220008992200089922000899220008D4
:100020000000000000000000000000006123000844
:1000300099220008000000000D230008ED37000899
:10004000DD240008DD240008DD240008DD2400088C
:10005000DD240008DD240008DD240008DD2400087C
:10006000DD240008DD240008DD240008DD2400086C
:10007000DD240008DD240008DD240008DD2400085C
:10008000DD240008DD240008DD240008DD2400084C
:10009000DD240008DD240008DD240008DD2400083C
:1000A000DD240008DD240008DD240008DD2400082C
:1000B000DD240008DD240008DD240008DD2400081C
:1000C000DD240008DD240008DD240008DD2400080C
:1000D000DD240008DD240008DD240008DD240008FC
:1000E000DD240008DD240008DD240008DD240008EC
:1000F000DD240008DD240008DD240008DD240008DC
:10010000DD240008DD240008DD240008DD240008CB
:10011000DD240008DD240008DD240008DD240008BB
:10012000DD240008DD240008DD240008DD240008AB
:10013000DD240008DD240008DD240008DD2400089B
:10014000DD240008DD240008DD240008DD2400088B
:10015000DD240008DD240008DD240008DD2400087B
:10016000DD240008DD240008DD240008DD2400086B
:10017000DD240008DD240008DD240008DD2400085B
:10018000DD240008DD240008DD240008DD2400084B
:10019000DD240008DD240008DD240008DD2400083B
:1001A000DD240008DD240008DD240008DD2400082B
:1001B000DD240008DD240008DD240008DD2400081B
:1001C000DD240008DD240008DD240008DD2400080B
:1001D000DD240008DD240008DD240008DD240008FB
:1001E000DD240008DD240008DD240008DD240008EB
:1001F000DD240008DD240008DD240008DD240008DB
:10020000DD240008DD240008DD240008DD240008CA
:10021000DD240008DD240008DD240008DD240008BA
:10022000DD240008DD240008DD240008DD240008AA
:04023000DD240008C1
:1002340080F0004002E000BF81F0004142001FBF97
:100244005FEA410392EA030F7FEA226C7FEA236CA0
:100254006AD04FEA1262D2EB1363C1BFD218414095
:1002640048404140B8BF5B42192B88BF704710F02B
:10027400004F40F4000020F07F4018BF404211F0CE
:10028400004F41F4000121F07F4118BF494292EA36
:10029400030F3FD0A2F1010241FA03FC10EB0C0062
:1002A400C3F1200301FA03F100F0004302D54942EF
:1002B40060EB4000B0F5000F13D3B0F1807F06D39C
:1002C40040084FEA310102F10102FE2A51D2B1F194
:1002D400004F40EBC25008BF20F0010040EA030089
:1002E4007047490040EB0000013A28BFB0F5000F09
:1002F400EDD2B0FA80FCACF1080CB2EB0C0200FABF
:100304000CF0AABF00EBC25052421843BCBFD0400D
:100314001843704792F0000F81F4000106BF80F487
:1003240000000132013BB5E74FEA41037FEA226C4A
:1003340018BF7FEA236C21D092EA030F04D092F015
:10034400000F08BF0846704790EA010F1CBF002049
:10035400704712F07F4F04D1400028BF40F00040A6
:10036400704712F100723CBF00F50000704700F0C6
:10037400004343F0FE4040F4000070477FEA2262ED
:1003840016BF08467FEA23630146420206BF5FEABE
:10039400412390EA010F40F4800070474FF00003BE
:1003A40004E000BF10F0004348BF40425FEA000C85
:1003B40008BF704743F0964301464FF000001CE02D
:1003C40050EA010208BF70474FF000030AE000BF83
:1003D40050EA010208BF704711F0004302D54042C1
:1003E40061EB41015FEA010C02BF84460146002033
:1003F40043F0B64308BFA3F18053A3F50003BCFA4E
:100404008CF2083AA3EBC25310DB01FA02FC6344FA
:1004140000FA02FCC2F12002BCF1004F20FA02F201
:1004240043EB020008BF20F00100704702F12002F4
:1004340001FA02FCC2F1200250EA4C0021FA02F255
:1004440043EB020008BF20EADC7070474FF0FF0C5A
:100454001CEAD0521EBF1CEAD15392EA0C0F93EA55
:100464000C0F6FD01A4480EA010C400218BF5FEAF7
:1004740041211ED04FF0006343EA501043EA51116A
:10048400A0FB01310CF00040B1F5000F3EBF490064
:1004940041EAD3715B0040EA010062F17F02FD2A68
:1004A4001DD8B3F1004F40EBC25008BF20F001004B
:1004B400704790F0000F0CF0004C08BF49024CEA62
:1004C400502040EA51207F3AC2BFD2F1FF0340EAF4
:1004D400C250704740F400004FF00003013A5DDC65
:1004E40012F1190FDCBF00F000407047C2F10002A6
:1004F400410021FA02F1C2F1200200FA02FC5FEA93
:10050400310040F1000053EA4C0308BF20EADC70DC
:10051400704792F0000F00F0004C02BF400010F44E
:10052400000F013AF9D040EA0C0093F0000F01F0FB
:10053400004C02BF490011F4000F013BF9D041EA1D
:100544000C018FE70CEAD15392EA0C0F18BF93EA1F
:100554000C0F0AD030F0004C18BF31F0004CD8D149
:1005640080EA010000F00040704790F0000F17BFD0
:1005740090F0004F084691F0000F91F0004F14D016
:1005840092EA0C0F01D142020FD193EA0C0F03D16E
:100594004B0218BF084608D180EA010000F0004071
:1005A40040F0FE4040F40000704740F0FE4040F44C
:1005B400400070474FF0FF0C1CEAD0521EBF1CEAEB
:1005C400D15392EA0C0F93EA0C0F69D0A2EB030209
:1005D40080EA010C49024FEA402037D04FF08053A3
:1005E40043EA111143EA10130CF000408B4238BF68
:1005F4005B0042F17D024FF4000C8B4224BF5B1A76
:1006040040EA0C00B3EB510F24BFA3EB510340EAC3
:100614005C00B3EB910F24BFA3EB910340EA9C0071
:10062400B3EBD10F24BFA3EBD10340EADC001B01E1
:1006340018BF5FEA1C1CE0D1FD2A3FF650AF8B4285
:1006440040EBC25008BF20F0010070470CF0004C92
:100654004CEA50207F32C2BFD2F1FF0340EAC250BD
:10066400704740F400004FF00003013A37E792F07E
:10067400000F00F0004C02BF400010F4000F013ADC
:10068400F9D040EA0C0093F0000F01F0004C02BFD7
:10069400490011F4000F013BF9D041EA0C0195E740
:1006A4000CEAD15392EA0C0F08D142027FF47DAFD9
:1006B40093EA0C0F7FF470AF084676E793EA0C0FC9
:1006C40004D14B023FF44CAF08466EE730F0004CC7
:1006D40018BF31F0004CCAD130F000427FF45CAF57
:1006E40031F000437FF43CAF5FE700BF42000ED21D
:1006F400B2F1FE4F0BD34FF09E03B3EB126209D459
:100704004FEA002343F0004323FA02F070474FF00E
:100714000000704712F1610F01D1420202D14FF083
:10072400FF3070474FF00000704700BF53B94AB91B
:10073400002908BF00281CBF4FF0FF314FF0FF30E5
:1007440000F00CB8ADF1080C6DE904CE00F010F81F
:10075400DDF804E0DDE9022304B07047704700BF10
:10076400034613F8012B002AFBD1181A01387047ED
:100774002DE9F04786468C460846089E1546744681
:100784001946002B40F0C1808542B2FA82F245D965
:100794004AB1C2F1200300FA02FC954094402EFABB
:1007A40003F343EA0C0C4FEA154EA8B2230CBCFB2E
:1007B400FEF80EFB18CC08FB00F943EA0C439945FC
:1007C40028D9EB1808F1FF3704D2994502D9A8F1CA
:1007D40002072B44A3EB0903A4B2B3FBFEFC0EFBFC
:1007E4001C330CFB00F044EA0344A04214D92C1936
:1007F4000CF1FF3304D2A04202D9ACF102032C4421
:10080400241A43EA07401EB1D440002334607360C5
:10081400BDE8F0874746DDE76346F1E792BB431B3B
:1008240001214FEA154EAFB2200CB3FBFEFC0EFBC8
:100834001C330CFB07F840EA0343984561D9EB18D5
:100844000CF1FF3004D2984502D9ACF102002B44DC
:10085400A3EB0803A4B2B3FBFEFC0EFB1C330CFB9E
:1008640007F744EA0344A7424DD92C190CF1FF338E
:1008740004D2A74202D9ACF102032C44E41B43EA9C
:100884000040C0E7C2F120039540944020FA03F1F0
:100894002EFA03F34FEA154E9040AFB20343B1FB77
:1008A400FEFC0EFB1C10190C0CFB07F841EA00417E
:1008B400884522D969180CF1FF3004D2884502D941
:1008C400ACF102002944A1EB08019BB2B1FBFEFC90
:1008D4000EFB1C110CFB07F743EA01439F420ED9A0
:1008E400EB180CF1FF3104D29F4202D9ACF10201A2
:1008F4002B44DB1B41EA004193E76046E3E7614692
:10090400F7E76046A4E76346B8E7834206D916B919
:10091400002108467CE7C6E900E0F9E7B3FA83F76B
:100924008FB9834201D3724508D8BEEB020460EB51
:10093400030301209C461EB9002169E73846FAE703
:10094400C6E9004CF8E7C7F1200CBB400EFA07F5E6
:1009540022FA0CF42EFA0CF1BA401C4320FA0CF3E0
:10096400B8404FEA144901431FFA84FEB3FBF9F877
:1009740009FB18300B0C08FB0EFA43EA00439A45B6
:1009840040D9E31808F1FF3004D29A4502D9A8F1FE
:1009940002002344A3EB0A0389B2B3FBF9F809FB71
:1009A400183308FB0EFE41EA03418E452CD9611829
:1009B40008F1FF3304D28E4502D9A8F10203214481
:1009C40043EA0040A1EB0E01A0FB02984145CE464C
:1009D400434602D306D14D4504D20138B9EB020E89
:1009E40068EB0403002EA7D0B5EB0E0261EB030104
:1009F40001FA0CFC22FA07F3F9404CEA0303C6E9B6
:100A0400003199E74046C5E74346D9E708B50548AC
:100A140005F0B8FB002147F2305007F07DF80020C4
:100A240008BD00BF84860008014B1B68184700BF3F
:100A3400B0000020014B1860704700BFB0000020D8
:100A440030B585B004460D4610220021684607F0F3
:100A540005F902238DF80230044B2A4621466846E4
:100A6400019305F051F805B030BD00BF2D0A000810
:100A740080B505460E461746984604F0B9FD034670
:100A840007F056F90446DFF81890424649F800305A
:100A940039463046A84754F8090001F01FFC00BF4E
:100AA40008000000034A0020536823F00203536047
:100AB400704700BF004004E010B5EFF31184102329
:100AC40083F31288BFF36F8F084803683BB9084A61
:100AD400916A41F001019162916AC907FCD5013321
:100AE400036084F31188BFF36F8F10BDDC04002012
:100AF4000008024610B5EFF31184102383F3128823
:100B0400BFF36F8F0E490B6873B901220D4BD3E805
:100B1400EF1F002903D1C3E8E02F0028F7D184F3A5
:100B24001188BFF36F8F10BD012B08BF064803F176
:100B3400FF3302BF826A22F0010282620B60EEE799
:100B4400DC040020D80400200008024607B502F0A7
:100B54006DF80C4B0C4A1A600C4BD3F8942042F0FD
:100B64000402C3F89420D3F89430094A03F0040330
:100B74000193019B936823F00203936003B05DF833
:100B840004FB00BF1C01002000093D00000C0246CC
:100B940000080246F0B40D4B0D4E5F6A0D4BB34294
:100BA40003D36FF08500F0BC70475C68BC420AD385
:100BB4001D6945B194F802C08488E4B2A44502D109
:100BC4002B46F0BC18472433E9E700BFE0040020BB
:100BD40038020020140200202DE9F04705460E4695
:100BE4001746134CDFF84C80DFF84C90444503D390
:100BF4006FF08500BDE8F0876268D9F824309A4226
:100C040013D3A3698BB1A9889078C9B2884205D15E
:100C14003A4631462846BDE8F04718475279012A3A
:100C240003D13A463146284698472434DEE700BFCC
:100C34001402002038020020E00400202DE9F041D5
:100C440005460E4617460A4CDFF82880444502D371
:100C54006FF0850009E063690BB92434F6E73A467E
:100C64003146284698470028F7D1BDE8F08100BFF7
:100C7400140200203802002010B5044601F0A6FE3C
:100C840010F1780F00D050B9204605F025FB044A36
:100C9400D2F8C43023EA00030020C2F8C43010BDE7
:100CA400E00400200022024B1A605A60704700BF23
:100CB4009B05002070B50B4B0B4CA34201D30020C5
:100CC40070BD0022196A1E7F0439D5B2AE4201D824
:100CD4002433F2E7013211F832508542F5D1012074
:100CE400EEE700BF140200203802002073B58488A8
:100CF4000D46E4B263068DF8074007D02046FFF79F
:100D0400D9FF78B10D4B93F8BA0058B120460B4E79
:100D140055B101F007FEF3691BB108200DF107017D
:100D24009847012002B070BD01F012FEF369002B58
:100D3400F7D009200DF10701F2E700BFE00400201D
:100D440008B509480378C3F341130A3350F8233034
:100D54003BB100F1080200F110019847C043C00FF5
:100D640008BD1846FCE700BFE004002004282DE974
:100D7400F14F04460F46DFF8949016D001282DD188
:100D8400DFF88C8098F8B93043B300F0D9FD214DD9
:100D94004D4520D24FF0000AD5F820B02B7F5FFAE2
:100DA4008AF6B34204D82435F2E7FFF77BFFE7E77E
:100DB4000BEBC606307901F009FE0246307905F0E6
:100DC4008BFAD8F8C430002A23EA0003C8F8C430E8
:100DD4000AF1010AE2DA002388F8B9300D4D4D45D5
:100DE40008D30B4B1B6A6BB13946204601B0BDE8F2
:100DF400F04F1847EB681BB13A46214628469847FE
:100E04002435ECE701B0BDE8F08F00BF38020020C4
:100E1400E00400201402002073B586781E4C8DF87F
:100E240000600379427943EA0223ADF80230C378C3
:100E3400304603F003038DF8043005F04DFAD4F87E
:100E4400C430054618420BD0304600F05BFD3046F6
:100E5400FFF712FF06F0EDFD10B9962006F07BFEB9
:100E6400684605F052FC10F1780F03D010B1002051
:100E740002B070BD9DF8000001F084FD10F1780F00
:100E840001D00028F3D10120D4F8C43084F8B9008B
:100E94002B43C4F8C430EBE7E00400202DE9F0470D
:100EA400A84E0446B3690F461546FBB9237803F0F0
:100EB4001F03012B00F09E80022B00F0068133BB40
:100EC40094F900002A680028617834DA062912D0DF
:100ED40008292BD0D9B901235170137096F8C33067
:100EE4005B0043F001031370022328E198470028B4
:100EF400DCD100200DE06288100A011F012984461C
:100F040005D9072803D8716AD2B20C781CB96FF0DE
:100F14001500BDE8F0874E78664503D19A4200F08B
:100F2400098101332144F0E70B7808E196F8BA30DF
:100F34001370012303E101390829E8D801A353F808
:100F440021F000BFE30F0008130F0008F10F0008A1
:100F5400130F00086D0F0008130F0008130F00088B
:100F6400130F00087B0F00086088C0B201F09AFCE0
:100F74000028BED0CBE76388756A63BBFFF792FE97
:100F8400638886F8BA30F369002BB2D003206E4927
:100F94009847AEE76B78042B10D0052B11D0022BA9
:100FA40004D16F796388BB4208BF01202B781D44AC
:100FB4002B78002BEED10028A9D0DFE795F8038029
:100FC400F4E76388BB42F1D1B8F1000FEED12846B3
:100FD400FFF722FFEAE7FF270020B846E8E7638827
:100FE400012B94D1002386F8C33082E76388012B58
:100FF4008DD1F8E796F8BA30D5F800C0002B86D02A
:10100400756AA3882A465FFA83FE107800283FF4A5
:101014007EAF5178022904D192F80480F04500F2A1
:1010240095800244F1E78CF800208CF801203960A7
:101034005FE7154496E00B2A7FF469AF00274FF071
:10104400FF08BA46C14606E06B78042B0FD0052B87
:1010540021D02B781D442B78002BF5D1F36913B1E3
:10106400514607209847002F7FF443AF4FE795F888
:101074000280A38895F803909845EAD1638899453E
:10108400E7D1B8F1070F1DD806EB0803AA460127DC
:1010940083F8BB90DDE7A3884345DAD16388DBB2EC
:1010A4004B450AD0AF78384600F02CFC3846FFF7A1
:1010B400E3FDB0FA80F77F09CBE72846FFF7ACFEE3
:1010C4000746C6E7AA460027C3E794F900206378D9
:1010D400002A19DA002B7FF41AAFA3882D68DCB23A
:1010E4005B060AD02046FFF7E5FD00283FF40FAF6A
:1010F40096F8BA30002B3FF40AAF2946204605F093
:1011040019FB00236B70EFE6012B08D0032B7FF44F
:10111400FEAE6388002B7FF4FAAE012103E0618800
:1011240000297FF4F4AE2046FFF7E0FD00287FF4A9
:10113400E0AEECE6022829607FF4F6AE4B883B6013
:10114400D7E600BFE00400209A05002094F90000CF
:1011540062780028BFF66FAF002A3FF464AF0A2A12
:101164007FF4D5AE2A78002A3FF4D1AE69780429F9
:101174007FF45FAFA9788B427FF45BAF072B8EBF00
:1011840000239B1993F8BB308CF80030D1E600BFE4
:1011940013B5164C237DF3B9E26801AB8020A16836
:1011A400019205F0A8F8019AA3681344A360E368C8
:1011B4009B1AE3606BB962B12369E2889A4208DD45
:1011C40094F8C82093FBF2F102FB11330BB901230D
:1011D400237502B010BD002380201A4619462375DA
:1011E40002B0BDE8104001F013BC00BFE0040020D1
:1011F400002330B585B002460D460193002858D12E
:10120400002935D108220B460DEB020105F09FFAA7
:10121400002804DA802001F085FB05B030BD2A4C9B
:10122400029AC4E903552260039ABDF80E30626045
:1012340004F13802A2609DF908202575002A0ADB12
:10124400802B04D9802001F06DFB0020E3E713B16B
:10125400C4E90333E1E7FFF773FD0028DAD0E2883D
:1012640023699A42D4BFE260E360FFF791FFD4E7B9
:10127400154C01ABD4E90215002D04DC05F067FA26
:101284000028CADAC6E72A4605F061FA0028D9DB45
:10129400019AA3681344A360E3689B1AE360002BDC
:1012A400BBD104F13803A360FFF74AFD0028DCD169
:1012B400B0E78028B1D1044BDA68002AD5D11B7D70
:1012C400002BD2D1A9E700BFE0040020054B064A59
:1012D40058629A62054A0020DA62054A1A63054A8E
:1012E4009A617047E0040020A10E0008990B0008E1
:1012F400410C0008DD0B00082DE9F3410446474D7D
:101304004FF0FF334FF0FF32454803F007FC95F8E8
:10131400B830002B7BD16B6A83B142482C62E86100
:101324006E6A01F0B9FA01F027FA041E10DA3C489B
:1013340003F06CFC204602B0BDE8F08100F0BEF87A
:10134400FFF7C4FF6B6A002BE7D14FF0FF34EEE7E1
:1013540000F018FB041EEADB7378012B5AD1F379F1
:10136400002B57D00026684685F8C830ADF8023007
:101374008DF804608DF8006005F0C7F9041ED6DB13
:10138400802768468DF8007005F0BFF9041ECEDB97
:101394003046254905F09EF9041EC8DB384622492B
:1013A40005F098F9041EC2DB204CDFF88480444524
:1013B4001AD3002001F0E6FA041EB8DBD5F8C430D5
:1013C400802043F00103C5F8C43001F0DBFA041EA9
:1013D400ADDBD5F8C430002443F48033C5F8C43001
:1013E400012385F8B830A2E70026276A227FF3B2EA
:1013F4009A4201D82434DAE707EBC30257F83310D2
:10140400107905F067F901360028EFD09DE76FF0F9
:1014140077048CE76FF0150489E700BFE00400202F
:1014240058010020710D0008F51100081402002075
:101434003802002030B51F4B8BB005AA03F110050C
:10144400144618685968083303C4AB422246F7D1DE
:101454001B7810222370002101A806F0FFFB122242
:101464000021154806F0FAFB102101A801F07CFECA
:1014740000281BDD0828B8BF082001AB09381A185A
:1014840000200D4912F8013F0AAC04EB131403F0D9
:101494000F0328336B4414F8144C13F8143C013034
:1014A40008280C704B7001F10201EBD102480BB01B
:1014B40030BD00BF9E860008551000202DE9F04F76
:1014C400714B87B093F800B0BBF1000F03D06F48A5
:1014D40007B0BDE8F08F6D4C00264FF0011AB046FE
:1014E4003546B14623783BB9694B02349C42F3D16B
:1014F4000123654A1370EAE76378052B1BD8DFE8FC
:1015040003F08C03C18C1D39402304A88DF810B05E
:10151400ADF812308DF814B005F0E7F840B10823A7
:1015240004A8ADF8123005F0E0F808B1ADF812B037
:10153400BDF81230E37123781C44D3E7E378002B21
:10154400F9D1A3786BB108F101085FFA88F8F2E7E2
:101554006B689C4207D024354E4B9D42F8D3002043
:10156400B6E74D4DF8E7AB68002BECD0414620467A
:101574009847E8E7002DF2D000222B7F9A42EED262
:10158400296AA07801EBC2010B79984201D001329B
:10159400F3E70127E078FBB200F003008DF81400B4
:1015A400207994F805C040EA0C20ADF8120094F9B3
:1015B4000200002826DA4FF0010C07F110000CFAA3
:1015C40000F010EA0A0F24D143F080008DF81000D7
:1015D40004A8CDE90213019205F087F8DDE90121A1
:1015E400039BB0B99DF8102012F0800FA2700A710D
:1015F4004FF001021DBF1033DBB29A40BA404AEAF1
:10160400020A98E70120B84010EA0A0F01D11846EF
:10161400DCE70137102FBDD1B9E7032E1AD1FFF74C
:1016240009FF074650B1FFF79BF8024630B1102876
:10163400A8BF10223946A01C06F003FB6FF002017C
:101644002378091BE21804EB5303D14213D5013666
:10165400F6B270E7002EF1D1B9F1000F3FF47FAF7D
:10166400A4EB090389F80230C3F3072389F8033094
:1016740089F80480EBE702F801BC13F8010902F8C9
:10168400020DE2E7A14656E7541000206C01002049
:10169400130200203802002014020020094B00210C
:1016A4001A4610B51C78844204D15C6814B102EB6C
:1016B400811010BD0131042903F14003F2D100204F
:1016C400F7E700BFAC0500202DE9F34150F8283CB2
:1016D4000446103310F82C6C0AD1036950F8202CFE
:1016E400980736D5D2B9590715D5002344F8283CB4
:1016F40054F8283C10330BD054E9077554F8148C73
:1017040006F097F900284FD021462E4806F075F9C7
:1017140002B0BDE8F08143F004032361304654F87D
:10172400241C01AB04F0E7FD10B16FF01503DDE7F5
:10173400019A54F8243C134444F8243C54F8203CC3
:101744009B1A44F8203C54F81C3C134444F81C3CB9
:10175400CEE7304654F8241C01AB01F0ABF9002865
:10176400E3D1019D54F8243C2B4444F8243C54F820
:10177400203C5B1B44F8203C54F81C3C2B4444F8AC
:101784001C3C002DB1D0304604F0EFFFB5FBF0F364
:1017940003FB1055002DA8D154F8203C002BA4D0F5
:1017A400304601F0B7F9A3E744F8180CA4F110008F
:1017B40003F07CFA002DABD0424639463046A847A8
:1017C400A6E700BF380200204B1E012B73B5064666
:1017D4000D460FD8FFF762FF044668B9012D09D101
:1017E40001AB012230460DF1030101F063F9019BC5
:1017F400002BF5D102B070BD06F01BF904F12C01E9
:1018040008B1012D05D1084602B0BDE87040FFF7CC
:101814005BBF034802B0BDE8704006F0EEB800BFFD
:10182400380200202DE9F74F0646154698460191E7
:1018340004F0AAFD044600285BD1EFF3118A1023BB
:1018440083F31288BFF36F8FDFF8ACB0002200235C
:10185400584603F05FFA70B9DFF8A090A70109EBCE
:101864008414636813F1100F14D10193584603F0E4
:101874001DFA019B06E00134042C0BF1400BE5D169
:101884006FF00B038AF31188BFF36F8F184603B010
:10189400BDE8F08F019B2061C4E902350C9B304602
:1018A40063610D9B09F80760A3616FF00F03C4F82F
:1018B4003C80636004F059FF58B1304604F055FF92
:1018C400B5FBF0F303FB10551DB1E36B43F00403C8
:1018D400E36318F0020F07D007F12C0108484944CC
:1018E40006F08BF80023CDE7304601F013F90346E8
:1018F400C8E76FF00F03C9E7C8050020AC05002056
:101904003802002010B5EFF31184102383F31288FA
:10191400BFF36F8FFFF7C2FE50B14368103307D196
:101924006FF08B0300F12C014360044806F065F866
:1019340084F31188BFF36F8F10BD00BF38020020FD
:10194400F8B5042510270D4CEFF3118687F31288A0
:10195400BFF36F8F6368103307D16FF08B030848B0
:10196400636004F12C0106F048F886F31188BFF394
:101974006F8F013D04F14004E6D1F8BDAC050020B1
:101984003802002070B50025094C0A4E3146204625
:1019940006F017F80122A4F110001146013505F0F4
:1019A400D4FF042D04F14004F0D1002070BD00BF29
:1019B400D8050020CD1600080123016981F84B30B9
:1019C4000B6833B191F849301BB10248083106F075
:1019D40014B87047380200200123016981F84A30A5
:1019E4000B6833B191F848301BB10248083106F056
:1019F40004B870473802002070B50569EFF311860A
:101A0400102383F31288BFF36F8FD5F8900004F08E
:101A140015FC044686F31188BFF36F8F30B10022A2
:101A24000023034805F1180103F0D2FA204670BDE3
:101A340038020020012370B582F8483013680D463F
:101A440014463BB192F84A3023B10E4802F1080122
:101A540005F0D3FFD4F890305A89DB889A4205D137
:101A64007DB904F118014FF47A7204E004F118010D
:101A7400002DF8D00022BDE870400023014803F097
:101A8400A7BA70BD3802002070B50E46818804469E
:101A9400C9B21548154604F054FC10B394F900205B
:101AA4006378002A16DB202B04D0222B0ED06FF093
:101AB40085000AE02B681A6840F8102C9A8820F8F0
:101AC4000C2C9B7900F80A3C002070BD638800F858
:101AD400093CF9E7212BEAD1072310382860336049
:101AE400F2E76FF01200F0E7B0060020014608B5F7
:101AF400034804F033FC10B1012300F8073C08BD8F
:101B0400B0060020002103460C4AA0F848101068D3
:101B140083F89C10C3F8940090889279A3F89800F5
:101B240083F89A2083F89B104022A3F89E1083F830
:101B3400A01003F14C0006F091B800BF58840008CF
:101B4400002310B50469C4F8A8300C4BC4F8A400F1
:101B5400596804F1A80269B9C3E9002204F1080034
:101B6400074905F02EFF04F11800064905F055FF5A
:101B7400002010BD0A605A60F0E700BFB0060020E4
:101B8400B7630008091C0008002373B51025046915
:101B94008DF8071084F84830EFF3118685F3128826
:101BA400BFF36F8F0122D4F890000DF1070104F008
:101BB40045FB86F31188BFF36F8F01280FD005F022
:101BC40038FF10B994F8A13093B901220B4BD3E834
:101BD400EF1F002903D1C3E8E02F0028F7D10A2220
:101BE400002304F11801064803F0F2F902B070BDB5
:101BF40000210A2005F090FFCEE700BFAC060020CC
:101C040038020020F0B5D0F88C3005465B6885B00A
:101C14001B6A1F7D384604F0B7FB064650BB95F897
:101C240086303BB3A86F0146C38831F80A2F9B1A4C
:101C34009BB2B3F5807F28BF4FF4807303AA04F0EE
:101C4400AEFA0446B0B18306A5F1180385F83060F6
:101C54000193094B08BF00F1FF3422460399009316
:101C640038460223FFF7DEFDA86F224600F10A0181
:101C740004F0CBFA05B0F0BD391A000837B51446A4
:101C84000A1E054621DDD4F88C0004F14C0104F051
:101C9400D5FA012384F8493023683BB194F84B30DA
:101CA40023B1114804F1080105F0A7FED4F88C20F3
:101CB4009388918912695B1A9BB2D31A3F2B04D87B
:101CC400012384F8A03003B030BD94F89E30002B7B
:101CD400F9D0064B4022009328460123019404F1D5
:101CE4004C01FFF79FFDEEE738020020811C00083D
:101CF400F7B50D4601461D4804F018FB044610B321
:101D0400064656F8A439691E5F6805291BD8DFE822
:101D140001F01C1A031C222610F8061C99B9012391
:101D240000F8063C3B6A3246187BFFF7A7FF14F81D
:101D34005C2C42B93B6A1146187D0D4B0196009309
:101D44000223FFF76FFD03B0F0BD304603B0BDE8DA
:101D5400F040FFF7D7BE012304F8053CF3E710F881
:101D6400053C002BEFD00023F6E700BFB0060020AF
:101D7400391A000837B50024084D4FF0FF334FF4EB
:101D8400806228460649009403F0E4F80549284691
:101D940005F055FE204603B030BD00BF38020020D8
:101DA40070100020B986000808B50348034A0021D2
:101DB400121A04F0B5FB08BD380200206C10002094
:101DC400074808B5074A0849121A04F0ABFBBDE8F6
:101DD40008400648064A0749121A04F0A3BB00BF8C
:101DE40000000020380200204C8C00080000002075
:101DF400000000204C8C000838B505460C4699B10B
:101E0400D1E901230F48096804F0BCF9D4E904239B
:101E1400E1680D4804F0B6F9E1690C4804F0B2F940
:101E2400A1690B4804F0AEF9012D05D1EFF305814A
:101E34000848103904F0A6F921462846BDE8384080
:101E440002F04ABDC2860008F28600082287000814
:101E5400328700086187000830BFFFF7FDBF00BF6D
:101E64002DE9F04105460B4EDFF82C80324606EB97
:101E74000807CC1B2046094905F0E3FEA019424699
:101E84000021083C05F0EAFE6C6607F10800BDE895
:101E9400F08100BF0000000004000000508400082E
:101EA400054B5A699B689A421FBF044A536843F022
:101EB40080535360704700BF2010002000ED00E005
:101EC40010B5204C204804F05DF9A36A990137D578
:101ED4001E4804F057F91E20A36ADA0103D51C48F2
:101EE40004F050F91F20174CA36ADB0203D51948EC
:101EF40004F048F92020A36A1C0303D5164804F013
:101F040041F921200F4CA36A590303D5134804F067
:101F140039F92220A36A9A0303D5114804F032F94F
:101F24002320084CA36ADB0303D50E4804F02AF9E6
:101F34002420A36A6FEA03436FEA1343A36210BD2C
:101F44001D20C9E700ED00E0758700088E870008B2
:101F5400A2870008BD870008E887000807880008F2
:101F64002D8800084888000870B5244C064624488B
:101F74000D4604F007F9A36AD90435D5214804F0C5
:101F840001F91720A36A1A0503D51F4804F0FAF8CB
:101F940018201A4CA36A9B050FD51C4804F0F2F8CC
:101FA400A16BA36A180407D5194804F0EBF81EB115
:101FB400A36A23F40043A3621920104CA36A5905B1
:101FC40003D5144804F0DEF81A20A36ADA050DD507
:101FD400114804F0D7F81B20084A936A43F47F435E
:101FE400936200232B7070BD1620CBE7A36A9B0479
:101FF400F2D50A4804F0C6F81C20EDE700ED00E035
:10200400748800088B8800089D880008B18800083F
:10201400CB880008E1880008FD88000816890008BC
:1020240070B5264C064626480D4604F0ABF8A36A64
:10203400D80640D5234804F0A5F81120A36A19074F
:1020440003D5214804F09EF812201C4CA36A9A0779
:102054000FD51E4804F096F8616BA36A1B0607D5DA
:102064001B4804F08FF81EB1A36A23F08003A36217
:102074001320124CA36ADE0703D5164804F082F835
:102084001420A36A9C0603D5134804F07BF815209A
:102094000A4B9A6AD10658BF9A6A9A6A920642BF54
:1020A4005A6A22F400525A629A6A42F0FF029A6211
:1020B40000232B7070BD1020C0E700BF00ED00E0CE
:1020C400468900085D8900089D88000891890008F8
:1020D400AA890008C1890008168900082DE9F04181
:1020E4005B4B04465F6800258AB0C7F3080685F396
:1020F4001188BFF36F8F02F07F43B3F17F4F06D196
:1021040002F00C03082B13D1524804F03BF80025CD
:102114002C464FF00008F31E8DF80780092B00F2BF
:102124008580DFE803F00A797D7583838383838167
:1021340010074CBF0C460125EBE74748444E04F01A
:1021440021F88DF80780F36A9A0704D5434804F010
:1021540019F800232FE0F36A002B01DA4048F6E770
:10216400F36A5B00F5D53F4804F00CF87369A26983
:1021740043F480737361BFF34F8FBFF36F8F736941
:1021840032F8022C23F480737361BFF34F8FBFF3D3
:102194006F8F4DF602739A4208D0B36ADBB24BB329
:1021A40001200DF10701FFF73BFF33E021682E48C2
:1021B40003F0E8FF23689DF80720C2B902AE04F1DA
:1021C4002007324620686168083403C2BC421646C0
:1021D400F7D1099AB5B3C2F3080121B96FEA5222C3
:1021E4006FEA42220992184602A9FFF705FE0AB0D7
:1021F400BDE8F081B36A13F47F4F05D001200DF1DF
:102204000701FFF7B1FE05E0B36AB3F5803FA0D341
:10221400FFF756FE0346CEE700200DF10701C2E7A3
:1022240000200DF10701ECE7104890E7104B17F47C
:10223400F87F1049104818BF1946A6F1100203F0A0
:10224400A1FF86E722F4FF7222F00102CAE700BF71
:1022540000ED00E00F8A00083B8A0008538A00085A
:10226400758A0008848A0008A48A0008C18A0008C4
:10227400F6890008E1890008E68A0008044B5A69D7
:1022840042F010025A615A6922F008025A617047FA
:1022940000ED00E0EFF30880EFF3098101B5724629
:1022A400FFF71CFF01BD00BF0A4880F30888102017
:1022B40080F3118808484FF40061401880F30988BE
:1022C400EFF314800221084380F31488BFF36F8F67
:1022D40000F09CF8B021002070140020084B9B688B
:1022E40083420BD1EFF3058343B1064B5A6842F0A6
:1022F40080525A605A6A22F400425A6203F07EB94C
:102304002010002000ED00E011498A684FF03000F1
:102314001044EFF3098C80E8F01F102080F312883A
:10232400BFF36F8F0B4F4FF000664A698A603E60BF
:10233400506E094C2060906E0023936680F31188E0
:1023440002F1300090E8F01F8CF309887047000018
:102354002010002004ED00E0B80600201EF0040F59
:102364000CBFEFF30880EFF30980816911F8021CB8
:102374000229FFD001B5724604F0D6F801BD00BFB2
:1023840040B2002807DB01234109034A00F01F0083
:10239400834042F82130704700E100E040B2002859
:1023A4000CDB01220649430900F01F008240203360
:1023B40041F82320BFF34F8FBFF36F8F704700BFE7
:1023C40000E100E040B2002801F10101ACBF00F1DE
:1023D4006040064B4FEA0111C9B2ABBF00F5614042
:1023E40000F00F0080F800131954704714ED00E05A
:1023F400044B054A23F07F039360BFF34F8FBFF371
:102404006F8F70470000000800ED00E008B5FFF78B
:10241400EFFF0B4AD2F8883023F47003C2F88830F7
:10242400EFF3148323F0040383F31488BFF36F8F53
:10243400FFF7BAFCFFF7C4FC00F042F802F010FB0F
:1024440000ED00E042F8203C009B0B4942F81C3CA4
:10245400019B21F0010142F8183C029B42F8081C40
:1024640042F8143C4FF0807342F8043C0023203AB5
:1024740002658366704700BF750A000800B50B4B00
:1024840015469860426E0A4B0E461A602C4686F337
:1024940009880020034B984720460021002200238E
:1024A400014C204751650008750A000820100020DF
:1024B400B80600201022014B1A61704700ED00E0BD
:1024C400002310210348C21801337D2B82F8001326
:1024D400F9D1704700E100E008B5EFF30583064A3F
:1024E400103B02EBC30152F8330049688847BDE84A
:1024F4000840FFF7D5BC00BF807F000808B5024B39
:102504001B689847002008BDBC060020034B044A02
:102514001860937843F0020393707047BC06002060
:10252400F400002008B50649064821F00701C1F16E
:10253400005202F5402203F0CBFD002008BD00BF8D
:10254400B7270020C006002013B50C4C204605F028
:10255400D3F968B16B460A4A92E8030083E80300A2
:10256400A26812683AB119462046904702B010BDDD
:102574006FF01200FAE76FF05700F7E7F87D0008F4
:10258400508400081F2803460CD80120064A00FA8C
:1025940003F3D16833EA010105D01269934318BFEC
:1025A400002070470020704700200246012300F0FD
:1025B4001F021F2803FA02F39DBF044A0020D360C0
:1025C4006FF0150098BF1361704700BF00200246EA
:1025D4002DE9F041054600264FF001080E4F6B78B7
:1025E400F4B2A34201D8BDE8F0812B781C44204604
:1025F400FFF7C8FF68B12046FFF7D8FF57F834301B
:102604003BB107EBC40204F01F04516808FA04F05C
:1026140098470136E3E700BFCC060020014B19546C
:10262400704700BF2C010020034670B1B0FA80F25D
:10263400C2F11F02D2B206498856064AD2F8801067
:102644000B43C2F88030FFF79BBEFF22F3E700BFC5
:102654002C01002000200246034AD2F8803023EAED
:102664000003C2F88030704700200246032921D8B5
:10267400DFE801F0020C10190F4B1A6822EA00027D
:102684001A605A6822EA00025A6070470A4B1A68B4
:102694000243F5E7084B5A6802435A601A6822EA73
:1026A40000021A607047044B1A6802431A605A68A1
:1026B40010435860704700BF0020024630B5B0B1E7
:1026C400B0FA80F3C3F11F03DBB20B4850F8334078
:1026D4008C4204D100EBC3056D68954205D044B922
:1026E40040F8331000EBC3004260002030BDFF23EC
:1026F400EBE76FF00F00F9E7CC06002060B1B0FA09
:1027040080F3C3F11F03DBB20021044A42F8331003
:1027140002EBC30251607047FF23F5E7CC060020AB
:10272400C300074AC0F38100183052F8202003F098
:1027340018000F238340134023FA00F0704700BFB2
:102744000020024620F08002052A0BDC064B10F024
:10275400800F03F1D8010CBF18460846242303FB5D
:102764000200704700207047340C0020014801F03B
:1027740035BA00BF4C07002073B5404C204605F025
:10278400BBF8002876D03E4AA568136943F080530D
:102794001361AB691BB96FF0040002B070BD002275
:1027A4002046384998470028F5D12B68002BF2D0F1
:1027B40020463549984705460028ECD1334C344B24
:1027C40001462360062323714FF44073E3804FF4E2
:1027D4001073A07301AA2F48238104F0E2F90028A2
:1027E400DBDB019B2A461979186800F0D9FC002824
:1027F400D3DB204601F07AF90028CCD1204604F03E
:102804004CFC0028C7D1204604F02AFC0028C2D181
:10281400402304F2D456A0212046A4F8E83484F8D6
:10282400EC54A4F8C03584F8C45504F0AEFD294630
:102834001022A6F2D45004F089FD2C46A6F2D455F9
:10284400012230461146013405F07FF8062C06F1CA
:10285400240605D01C222846E1B204F077FDEFE7F8
:10286400002249201146FFF7ADFD4920FFF788FDFE
:10287400002092E76FF012008FE700BFF87D000898
:102884000008024688840008808400084C07002061
:102894000000044260840008014BC3F8E40470475C
:1028A4004C070020014608B5044804F019FC002830
:1028B40014BF6FF00400002008BD00BF4C070020C7
:1028C40008B513460206014605D5802800D12BB170
:1028D4006FF0150010E0402B28BF402321F0800248
:1028E4000648920102F5D362024404F073FC002806
:1028F40014BF6FF00400002008BD00BF4C07002087
:10290400030610B50C4607D431B10146044804F05F
:102914007FFC2060002010BD6FF01500FBE700BFB6
:102924004C07002038B50546FFF70CFF044638B1C4
:102934002946064804F08EFC28B90123637138BD8A
:102944006FF01500FBE76FF00400F8E74C07002078
:1029540038B50546FFF7F6FE044650B1437933B166
:102964002946074804F0ADFC30B96071E0600020EE
:1029740038BD6FF01500FBE76FF00400F8E700BF07
:102984004C07002070B50446FFF7DCFE0546A0B1F5
:102994000D4E037902882146304604F0B4FB78B921
:1029A40063B2002B0BDD06EB841120462A8801F567
:1029B400D361BDE87040FFF783BF6FF0150070BDB1
:1029C4006FF00400FBE700BF4C07002010B504467D
:1029D400FFF7B8FE90B10B4883681B691BB10A4925
:1029E4009847022801D0002010BD2146074804F072
:1029F400C3FB0028F7D06FF00400F5E76FF0150073
:102A0400F2E700BFF87D0008808400084C0700202E
:102A14002DE9F8430646894615469846FFF792FE87
:102A240000283ED033063CD500F1140700220023D1
:102A3400384602F06FF90446B0BB04F0FAFF10B94F
:102A44004920FFF7ABFC802E02D1402D28BF402542
:102A54004A462B463146164804F0E2FB024658B17A
:102A6400384602F023F904F0E4FF10B94920FFF7D7
:102A740087FC6FF0040411E0802E04D11DB10146DF
:102A84003046FFF71DFF04F0D4FF10B94920FFF7CB
:102A940077FCB8F1000F01D0C8F800502046BDE81B
:102AA400F8836FF01504F9E76FF00A04F6E700BF46
:102AB4004C0700202DE9F8438146884616461F46F8
:102AC400FFF740FE044600B319F0800FC5681CD11F
:102AD400B8F1000F14D0B54228BF35464FF4D36681
:102AE40003690B4906EB89161E442A4640463144C5
:102AF40005F0A7F8E3685B1BE36023692B442361BB
:102B040007B13D600020BDE8F8836FF01500FAE7D7
:102B14004C07002010B50446FFF714FE80B12306CD
:102B24000ED4C3680BB1002010BD4FF4D363064923
:102B340003EB8413028819442046FFF7C1FEF2E731
:102B44006FF01500F0E700BF4C07002070B50023BC
:102B5400402280210D4804F0D6FA00234022194671
:102B64000A4804F0D0FA0024084D05F2D45630196E
:102B7400243402F09BF8D82CF9D1D5F8E43423B1ED
:102B8400BDE8704000210120184770BD4C070020AB
:102B9400034BD3F8E43413B10021022018477047E3
:102BA4004C070020034BD3F8E43413B10021042074
:102BB400184770474C070020034BD3F8E43413B193
:102BC40000210520184770474C070020034BD3F819
:102BD400E43413B100210620184770474C07002045
:102BE400082370B50025104CD4F8A014D4F89C0424
:102BF400C4F8F434D4F8F03404F5D36686E803005A
:102C0400C4F8F8547BB1294628469847B4F8A2245E
:102C14004AB194F99C34AB4205DB31462846BDE801
:102C24007040FFF74DBE70BD4C070020074B1A687B
:102C340022F004021A605A68D207FCD40222DA6035
:102C44001A6842F001021A60704700BF0004034092
:102C54000D4A0E49936813F4000308D0936813F4E3
:102C640000030CD1D2F8F42051F823007047906887
:102C7400000207D4D2F8F430C3F30333F4E79368C3
:102C84001B0FF1E79268EFE7000C0246008600088C
:102C940038B5334B0D4618680B881446C3F30B0341
:102CA400112B30D813B96FF085003FE0013B102B96
:102CB400F9D801A252F823F0332D0008052D00089D
:102CC400AB2C0008AB2C0008AB2C0008012D00082D
:102CD4003F2D0008452D0008252D0008252D00084E
:102CE400252D0008252D0008252D0008252D000878
:102CF4004B2D0008332D0008332D000819480FE030
:102D04004FF400400CE0882B0AD003F67473C3F32D
:102D14000B031C2BC7D8144A22FA03F3DB07C2D5D2
:102D240020602B68B3F5805F12D2002038BDFFF716
:102D34008FFF502358434008F2E7FFF789FFEFE77E
:102D44000A4B1868ECE7FFF783FF50235843E7E783
:102D5400C3F313330133B0FBF3F02060E5E700BFA6
:102D64001C010020006CDC02110111110086000816
:102D740037B5994C994BE26902F00C021341D9071B
:102D840000F12581FFF764FF236A954A03F00F03DE
:102D9400D35C20FA03F5934BDA6842F44032DA60EC
:102DA400DA681204FCD59048854201D201F012FD84
:102DB400894CD4F8943043F00403C4F89430D4F824
:102DC400943003F004030193019BFDF775FED4F8DE
:102DD400F03023F0180343F01003C4F8F030D4F8B3
:102DE400F03043F00103C4F8F030D4F8F0309B071E
:102DF400FBD5D4F8F03043F08003C4F8F030764CBF
:102E0400D4F8F0301805FBD5FDF774FEA36843F43D
:102E14000003A360A36823F0704343F08043A360DE
:102E2400236843F040032360236843F008032360CE
:102E3400236843F001032360674B1A685107FCD5EC
:102E44001A6842F480521A601A689204FCD5DA694E
:102E540002F00C020C2A1AD11A68540507D41A6815
:102E640042F480721A605C4A13685805FCD55A4BC8
:102E7400DA6922F0030242F00102DA61DA6902F04F
:102E84000C02042AFAD11A6A22F00F021A62524B77
:102E94001A6822F080721A609A6A22F0030242F0E1
:102EA40001029A624F4AD16821F48021D160D4682A
:102EB40014F48044FBD19A6A474922F470429A621E
:102EC4004A4B4B4A1B699342B6BF4A4A102393FBB1
:102ED400F2F38A6A03EBD37322F470425B1042EA82
:102EE40003338B623F4BDA6842F48022DA60DA689B
:102EF4005104FCD5FFF7ACFE3F4AA0F57413A3F5CB
:102F04001063934205D93D4B3A4A0344934260D23D
:102F14000C24314B9A6A22F470629A629A6A22F003
:102F24000C0222439A625A6B22F4FF7222F00102CD
:102F340042F04F025A639A6A22F010029A625A6B64
:102F440022F4FE0242F480325A639A6A42F4003256
:102F54009A625A6B22F0FE4242F080725A639A6A75
:102F640042F480229A621A6842F080721A601A68E7
:102F74009201FCD5DA6A22F00302DA621A6B22F0BB
:102F840003021A631A6A22F00F021A621A6A22F002
:102F940070021A621A6A22F4E0621A625A6A22F011
:102FA40070025A62DA6942F00302DA610A4AD369AA
:102FB40003F00C030C2BFAD10B4CA54202D3204690
:102FC40001F008FC00200E4B1C6003B030BD002053
:102FD400DAE66FF02100F8E7000C0246FEEFFFFF8F
:102FE400E48B00080008024600688909008600088E
:102FF4000020A10700127A0000093D00FFED85FFC3
:103004001C010020182808D8054BC34013F0010FF9
:1030140014BF00206FF0850070476FF08500704783
:10302400C67E030108B5074804F066FC38B10648BB
:10303400FFF76CFA0448FDF7FDFC002008BD6FF0B3
:103044001200FBE7487F0008513000080A2838B511
:103054000446074D04D1AB680D2128465B689847A8
:10306400AB6803485B68E1B29847204638BD00BFAF
:10307400487F00082DE9F843D0F804801746D0F8BB
:103084001090D8F808000D461E4603F00BFBB7F568
:10309400001F044616D12846D8F80840FFF740FB25
:1030A40084420CD1294603F0FDFA0446FFF7D4FA12
:1030B4002046FFF723FB00212046FFF7D7FA002024
:1030C400BDE8F883B7F5800F20D0B6F1806F19D032
:1030D400B6F1C06F18D0B6F1007F1AD102264A4665
:1030E40020460F49FFF7EAFAB0B92846D8F8081085
:1030F40003F0DDFA20463146FFF7B8FA2046FFF721
:1031040093FADCE70126EAE70326E8E76FF0850097
:10311400D6E76FF01500D3E76FF00F00D0E700BFDC
:10312400516B000838B50369044658600C4D2846B5
:1031340004F0E2FB88B10B4A136943F000531361B6
:10314400AB6861681B680C3123B12846984700EAD4
:10315400E07038BD6FF05700F9E76FF01200F8E740
:10316400F87D0008000802460C291FB528BF0C2171
:103174000C460A4BD3F8082712BA0192D3F8042755
:1031840012BA0292D3F800370A461BBA01A9039374
:1031940004F057FD204604B010BD00BF0000FA0B38
:1031A4002DE9F047044600251D4F00EBC106B4424B
:1031B40001D1002014E02068C30600F01F0911D4D7
:1031C400656845F02005C0F3481AC0F34420192867
:1031D40023D857F82080B8F1000F0DD16FF01200FA
:1031E400BDE8F087B9F1100F04D0B9F1110FEAD19D
:1031F4006568E8E73025E6E7404604F07DFB0028F3
:10320400ECD04B462A4640460AF00F0103F0B4FCCA
:10321400002804F10804CADAE2E76FF01500DFE7DA
:103224004485000843681B6803F1080252E8002F34
:1032340042F0010203F1080040E800210029F3D123
:10324400174A93421ED002F1805293421AD0154A73
:10325400934217D002F18052934213D0124A934200
:1032640010D002F1805293420CD0104A934209D0FC
:1032740002F18052934205D00D4A934202D0B3F139
:10328400502F03D15A6842F040025A6053E8002F8D
:1032940042F4807243E800210029F7D1704700BF4F
:1032A400003801400044004000480040004C004009
:1032B4000050004043681B6803F1080252E8002FE5
:1032C40022F0010203F1080040E800210029F3D1B3
:1032D400174A93421ED002F1805293421AD0154AE3
:1032E400934217D002F18052934213D0124A934270
:1032F40010D002F1805293420CD0104A934209D06C
:1033040002F18052934205D00D4A934202D0B3F1A8
:10331400502F03D15A6822F040025A6053E8002F1C
:1033240022F4807243E800210029F7D1704700BFDE
:10333400003801400044004000480040004C004078
:10334400005000400129034608461AD002290BD038
:10335400C9B91B680D4A934217D002F180529B1AD7
:1033640018BF0123180370471868084B98420AD005
:1033740003F18053984214BF4FF440504FF400506F
:103384007047002070474FF40050704700240046F7
:1033940070B500261D46094B6C0833F812203346DD
:1033A400FDF7C4F9090241EA1061000220182A4617
:1033B400334641F10001FDF7B9F970BD6486000898
:1033C4002DE9F34143680D461C68026921B96FF089
:1033D400150002B0BDE8F0811068D9688368DB6825
:1033E400002B49D001AA98470028F2DB244B9C42C9
:1033F40003D003F180539C4230D10026019FDFF8B3
:1034040084802B4638460021B2B2FFF7C1FFA0F5F5
:103414004070404503D90136102EF2D1D7E7E36A54
:10342400384623F00F033343E362174B33F8162077
:1034340000231946FDF77AF9090241EA10616B0885
:103444000002C0182A464FF0000341F10001FDF7C5
:103454006DF9C0F31300E0600020BAE7236823F499
:1034640000432360019800EB5500B0FBF5F10F29F0
:10347400ADD989B2E160EFE76FF05700A9E700BF6B
:1034840000240046FFFC0F00648600082DE9F84381
:1034940007460D7940683B69012D0E460468D3F850
:1034A400048017D0AB1ED3F1000949EB03094FEA9E
:1034B40089297179FFF746FFB2790346022A0CD0B5
:1034C400042A0ED0ADB1033D012D0CD86FF0850058
:1034D400BDE8F8834FF4C069EBE73DB94FF0805085
:1034E40008E0002DF2D14FF4805003E0033D012D9C
:1034F400ECD90020B3F5805F4ED0B3F5405F4DD0DA
:10350400002B0CBF012303239942DFD1494603F06A
:1035140093FB8242DAD1F37953B3012B40D1224B8E
:103524009C4225D003F180539C4221D01F4B9C42E6
:103534001ED003F180539C421AD01D4B9C4217D0DD
:1035440003F180539C4213D01A4B9C4210D003F1D8
:1035540080539C420CD0184B9C4209D0B4F1502F9C
:1035640006D0164B9C4203D003F180539C42ADD14C
:103574002368314623F001033846236003F0CAFC74
:103584000028A3DB236843F00103236096E80300CB
:1035940088E8030000209BE70023B5E70223B3E794
:1035A400032BBCD092E700BF003801400044004028
:1035B40000480040004C00400050004000240046F9
:1035C4002DE9F3410646476804695F48206004F02A
:1035D40093F920B96FF0120002B0BDE8F0812068C1
:1035E400F96883681B68002B00F0AA8098470028BC
:1035F400F2DB0021386A01AA03F0D3FA0028EBDBDE
:10360400019B002219791868FFF7CAFD0028E3DB43
:10361400756833692C68D3F80480236823F00103A8
:103624002360686804F068F90028D3D0D5E9010163
:103634008368DB6803B1984754E8003F43F00C0308
:1036440044E80032002AF7D14146304603F062FCD8
:10365400002802DA6FF01500BEE72B7D1BB1A368CA
:1036640043F00803A3606B7D1BB1636843F400431C
:103674006360AB7D1BB1636843F480336360EB7DAF
:103684001BB1636843F4003363602B7E002B42D08C
:103694002E4B9C4225D003F180539C4221D02C4BCD
:1036A4009C421ED003F180539C421AD0294B9C4269
:1036B40017D003F180539C4213D0274B9C4210D067
:1036C40003F180539C420CD0244B9C4209D0B4F1AA
:1036D400502F06D0224B9C4203D003F180539C42CE
:1036E400B8D173681A68936843F48043936023687D
:1036F4006A7E23F0787343EA425323602368AA7EE8
:1037040023F4F81343EA02432360EB7E1BB1A3685E
:1037140043F40043A3602B7F1BB1236843F00053A1
:103724002360236843F001032360E3699A02FCD514
:10373400E3695B02FCD530467B6A984700204BE77F
:103744006FF0570048E700BFF87D000800380140DB
:103754000044004000480040004C0040005000403D
:10376400002400464FF0E02310B50F499C691A6904
:1037740008689B690D4902F4803234B993B9034651
:103784004AB90A681044C01A10BD002B08BF03468A
:103794000AB9A342F5D90A6802440A604FF0E0224C
:1037A4001269EEE70446F3E71C100020181000200D
:1037B40010220A4B002083F823204FF47A52084B3E
:1037C4001A60084B43F67F6218604FF0E0235A6199
:1037D40098611A6942F007021A61704700ED00E02F
:1037E4001C10002018100020684620F007018D46A8
:1037F40019B5FFF7B7FF1149114B0868D3E9004227
:10380400001942F10002C3E9000200230B604FF4E7
:103814007A530C4AD2E90041001BB0FBF3F0434356
:103824001B1941F10001C2E9003102F0DBF8FEF797
:1038340037FBBDE819408546704700BF18100020CB
:10384400D0020020C80200202DE9F041DFF8E0801A
:1038540099B1421C0BD14FF0E022136923F001030C
:1038640013614FF07F43C8F80030BDE8F081D8F809
:103874000060012807DC00270BE0431CD8F8006037
:10388400F7D140F21740B0F5836FA8BF4FF48360BF
:10389400471EEFF31185102383F31288BFF36F8F54
:1038A400FFF760FF4FF0E023224C9969D4E900232D
:1038B40080184FF0000243F10003C4E900031E4BDB
:1038C4001A601E4B1A68831A2ED44FF47A5C0CFBD0
:1038D400073303F579533F33B3FBFCF7131A0CFB9F
:1038E4000733B3F5806F38BF4FF48063144A9342B3
:1038F40028BF13464FF0E022C8F80030013B90691E
:103904005361002381429361A1EB000338BF9B19EB
:10391400D4E900125B1842F10002C4E9003285F3D5
:103924001188BFF36F8FA0E74FF48063E2E700BF15
:103934001C100020D002002018100020C802002013
:10394400809DFF0038B5EFF31185102383F31288AF
:10395400BFF36F8F084B1C68084B1B68E41AFFF712
:1039640001FF85F31188BFF36F8F4FF47A5320441E
:10397400B0FBF3F038BD00BFD0020020C802002025
:103984002DE9F0414B4AD369916A13F00C0342D0FC
:103994000C2B52D101F0030101293CD00024D3693E
:1039A400444EB36AB56A03F00308B06AB36BC0F35C
:1039B4000010C3F3CC035843FCF7F0FCC5F3032514
:1039C400B8F1020F074605F1010542D0B8F1030F23
:1039D4003FD0706BC0F30800FCF7E0FC4FF064517B
:1039E40006463846FCF732FD01463046FCF726FC15
:1039F4004FF07E51FCF722FC06462046FCF7CEFC35
:103A040004462846FCF7CAFC01462046FCF7D2FDD2
:103A1400014630463AE09168090254BFD2F8F420D6
:103A24009268254954BFC2F30332120F51F8224061
:103A340063B10C2BB4D0002408E0D26902F00C026C
:103A4400042A35D0082B1D4C18BF00242046BDE89D
:103A5400F081706BC0F30800FCF7A0FC4FF06451D8
:103A640004463846FCF7F2FC01462046FCF7E6FB28
:103A74004FF07E51FCF7E2FB04462846FCF78EFC2F
:103A840001460F48FCF796FD01462046FCF7DEFC94
:103A9400084B0446586BC0F306600130FCF77EFC0B
:103AA40001462046FCF786FDFCF720FE0446CDE7E0
:103AB400024CCBE7000C0246008600080024F40008
:103AC4000024744B08B5FFF75BFF054B054A1B6ADE
:103AD40003F00F03D35CD840034B186008BD00BF4C
:103AE400000C0246E48B00081C010020F7B50446D4
:103AF40010B390F89534056803F0FF021BB980F801
:103B0400942403F0ACFA032384F89534324B2068F0
:103B14009D4204BF0023A37103F093FC237C251D65
:103B24008DF8003095E80E00206803F046FC01464D
:103B340030B1022384F895340125284603B0F0BD42
:103B4400206803F084FC0028F3D10127024626797B
:103B540004F11403C1B28E4203F1240321D80021DD
:103B64000A4604F51573C8B2864203F1240326D825
:103B7400237C8DF8003095E80E00206800F00AFCE4
:103B840005460028D5D10123607484F89534237B3D
:103B9400012B02D1204603F0FCFB206803F044FE15
:103BA400CBE723F80A0C43E9072203F8237C03F844
:103BB400241C03F8202C43F8142C0130CAE743E9F1
:103BC400072203F8232C03F8240C03F8202C43F8D1
:103BD400142C0131C7E700BF000004422DE9F04F67
:103BE400066889B00446304603F05AFE0390002864
:103BF40040F06E81206803F025FE002800F0688103
:103C0400D6F808382068C3F30D23C4F8D43403F07D
:103C140019FE870748BF226806F5006542BF53694D
:103C240003F002035361206803F00CFEC0062CD598
:103C34002268936923F010039361D6F82080C8F3B7
:103C44004343022B08F00F0740F0458147F6F07319
:103C540018EA030F14D0242303FB0747C8F30A19F7
:103C64004A463046D7F8601203F0A0FDD7F8603218
:103C74004B44C7F86032D7F868324B44C7F868320F
:103C84002268936943F010039361206803F0DAFD1E
:103C9400010300F13281206803F0D4FD42030DD505
:103CA400206803F0DBFD27464FF0000A049006F578
:103CB400106B049B2068002B40F0EA81206803F01D
:103CC400C1FD002813DA6B6823F001036B6094F8DC
:103CD400CC34012B40F084820021204684F8CC149B
:103CE40003F06AFB2268536903F0004353612068C0
:103CF40003F0A8FD01050AD5AB68DA0702D5204612
:103D0400FEF75AFF2268536903F400635361206885
:103D140003F098FD030115D52268536903F000638D
:103D2400536194F8CC34002B40F05E820121236867
:103D340084F8CC145B6D2046C3F38303C4F8D034F9
:103D440003F03AFB206803F07DFDC70433D56B68AC
:103D5400102123F001036B60206803F0A6FB4FF6EB
:103D64007F3106F5106322790398824200F2408283
:103D7400EB6943F00113EB61E37B002B00F0568207
:103D8400D5F8843043F00B03C5F884306B6C43F0F2
:103D94000B036B64D6F8003804F29C4223F4FE63F0
:103DA400C6F80038A179206800F0EEFC2268536957
:103DB40003F480535361206803F044FD800416D556
:103DC400206803F071FD206803F0BAFBE0712768F6
:103DD400FFF778FEE2790146384600F06BFA204698
:103DE400FEF7B4FE2268536903F40053536120685C
:103DF40003F028FD010707D5204603F06FF9226878
:103E0400536903F008035361206803F01BFD0206A5
:103E140000F11782206803F015FDC3020CD5A046FB
:103E2400012706F512692379BB4200F22882226831
:103E3400536903F480135361206803F003FD870280
:103E440029D52346012206F53261207990421DD9F5
:103E540093F87C720868012F40F02782002880F2D2
:103E64002482D4F8D4C48CEA1040C00700F11D8227
:103E740083F87B72B06940F08000B061706900061D
:103E840000F113826B6843F400736B60226853691A
:103E940003F400135361206803F0D4FC410007D5F8
:103EA4002046FEF775FE2268536903F08043536190
:103EB400206803F0C7FC42070AD523685D686B07D6
:103EC40002D52046FEF76EFE226853682B435360EA
:103ED40009B0BDE8F08F062B7FF4D2AE082230463D
:103EE40004F29C4103F062FC242303FB0747D7F848
:103EF4006832C8F30A184344C0E6206803F0A6FCFD
:103F0400A2460027049006F53068049B2068002B25
:103F14003FF4C1AE049BDB0765D55FFA87FB5946C6
:103F240003F0A4FC10F0010F81461ED00123C8F851
:103F34000830206894F806C000F5306303EB47139B
:103F4400BCF1010F016C9A687BD112F0080F07D005
:103F5400B448814209D9120407D54FF4004203E062
:103F640012F0200F48D020229A6019F0080F0FD0C9
:103F74000823C8F808302368AA49186C03F530638D
:103F840003EB471388429A6870D82046FEF728FE50
:103F940019F0100F1CBF1023C8F8083019F0020FD5
:103FA40014D073691A0642BF6B6843F480636B6074
:103FB4009AF85732012B06D10023594620468AF835
:103FC400573203F08CF80223C8F8083019F0200F98
:103FD4001CBF2023C8F8083019F4005F1CBF4FF43D
:103FE4000053C8F80830049B01375B08049308F1B8
:103FF40020080AF1240A88E712F0280FB5D1DFF867
:1040040024C2614501D91204A7D41A69DAF87432BA
:10401400C2F312029B1ACAF868326FB9D4F8642248
:104024002AB9012104F29C4200F0AEFB04E0D4F86A
:1040340060221A44C4F860225946204602F09EFBCE
:1040440093E7DFF8E4C1614506D1110485D49006F5
:10405400F2D520229A60EFE7002FEDD1D4F8643234
:10406400002BE9D1394604F29C42DDE7110448BF34
:104074004FF40042204648BF9A60FEF7B1FDA17993
:10408400012985D1206804F29C4200F07DFB7FE782
:10409400049BDB0740F19B805FFA8AF31946079380
:1040A40003F0EDFB10F0010F804620D001216B6B73
:1040B4000AF00F0201FA02F223EA02036B63CBF85F
:1040C4000810A17901290DD1D7E9072313443B62D4
:1040D400BAF1000F06D1636A23B9206804F29C4246
:1040E40000F052FB20465FFA8AF102F05DFB18F003
:1040F400080F1CBF0823CBF8083018F0100F1CBFA2
:104104001023CBF8083018F0400F1CBF4023CBF825
:10411400083018F0020F10D05146304603F0C5F9AC
:10412400FB7D012B06D100232046FB755FFA8AF143
:1041340002F04CFB0223CBF80830236818F0800F00
:10414400059344D0D7E909329A4240D8A3EB020838
:10415400FB69984528BF9846059B08F1030803F5B9
:10416400106303EB4A134FEA98080693069B996978
:10417400D7E9093289B2414527D393420BD80121AB
:10418400059B0AF00F00D3F83428814022EA01028B
:10419400C3F834281BE0A3EB0209FB69079A99458D
:1041A40028BF9946A37905980093396A1FFA89F3C1
:1041B40003F0E9FA3B6A09F103084B443B62BB6A2A
:1041C4004FEA98084B44BB62D0E79342D7D9049B8B
:1041D4000AF1010A5B08049324370BF1200B68E50C
:1041E4002046FEF7F3FC7DE52046FEF7E5FCA9E555
:1041F40099601A68203322F4001243F8202CC3F883
:10420400E811D3F8E02122F40012C3F8E021D3F836
:10421400E02142F00062C3F8E021039A01320392E4
:10422400A1E500BF0A30544F0A31544F6B6943F47F
:10423400005343F02B036B612B6943F00B032B6199
:10424400A8E501222427B36904F2572023F0800350
:10425400B36106F53263217991427FF6DBAD07FB4A
:1042640002F1415C012907D1196841F0006119602C
:10427400196841F08041196001322033EBE798F866
:104284003C30D9F80020012B09D1002A07DA67F065
:104294007F01204688F83B30C9B203F047F8013764
:1042A40008F1240809F12009BDE501322433203145
:1042B400CBE500BF022A4AD1274B284A0B4493423C
:1042C40039D9274B274A0B44934236D9264AA1F5BC
:1042D4007403A3F51053934231D9244AA1F1837393
:1042E400A3F5E74393422CD3214B224A0B44934238
:1042F40029D9214B214A0B44934226D3204B214AEE
:104304000B44934223D3204AA1F1B773A3F5585326
:1043140093421ED31D4B1E4A0B4493422CBF0623CB
:104324000723C26822F47052C260C26842EA83233F
:10433400C360002070470F23F3E70E23F1E70D233A
:10434400EFE70C23EDE70B23EBE70A23E9E7092367
:10435400E7E70823E5E700BF405327FFFF340C00DD
:10436400401E1BFF3F420F007F4F120020D6130058
:1043740060B6E5FE5FE3160000D3CEFE40771B0077
:10438400C05BB3FEC091210020753800E05459FE93
:10439400E09C410084B02DE9F041044607A880E880
:1043A4000E00002319469DF81C709DF8268003F129
:1043B4004002013304EB82020F2B5160F7D104F564
:1043C4000066B8F1000F46D1736843F002037360CE
:1043D400A36B23F40013A363236843F04003236017
:1043E400236843F080032360002503212046C4F89A
:1043F400005E03F09EF81021204603F056F80146B3
:10440400204603F075F80843C0B2401B356118BF5D
:104414000120756104F51063F561002F46D0D4F8CE
:104424000029AA421CDA4FF00062C4F800290022D5
:104434004FF67F310135AF421A61996003F12003D1
:1044440011D9D3F800C0BCF1000F09DA4FF0904C39
:10445400C3F800C0EEE7A36B43F40013A363C3E700
:1044640000221A60E3E7D4F8002B04F53063002A35
:1044740018DA4FF00062C4F8002B002200214FF636
:104484007F350132974219619D6003F120030DD9F4
:10449400D3F800C0BCF1000F05DA4FF0904CC3F81C
:1044A40000C0EEE7002200211960E7E7336923F436
:1044B400807333610023A3616FF0804363619DF8CF
:1044C4001E301BB9A36943F01003A361A2690B4B0F
:1044D4001343A3619DF822301BB1A36943F0080381
:1044E400A361B8F1010F01BFA36943F0804343F016
:1044F4000403A361BDE8F04104B0704700383C8078
:1045040030B54A780B78012A00EB431300F50060BC
:1045140029D1D3F80029002A0BDAD3F8002942F074
:104524000062C3F80029D3F8002942F08042C3F89E
:10453400002901240A78C56B02F00F0204FA02F282
:1045440025EA0202C2630978C26901F00F018C40B6
:1045540022EA0402C261D3F80019174A0A40C3F8D8
:104564000029002030BDD3F8002B002A0BDAD3F841
:10457400002B42F00062C3F8002BD3F8002B42F06A
:104584008042C3F8002B01240A78C56B02F00F02A5
:1045940004FA02F225EA0242C2630978C26901F010
:1045A4000F018C4022EA0442C261D3F8001B034A83
:1045B4000A40C3F8002BD4E7007833EC0078F3EF1B
:1045C400F7B54B780F78012B6C4EDFF8B4C100EBD4
:1045D400471440F089800D6904F5106345BB1D69DB
:1045E40035401D611D6945F400251D611D6905EAFD
:1045F4000C05012A1D614CD1CA6902B15A610B79BB
:10460400012B0CD1D0F8083813F4807FD4F800398A
:104614000CBF43F0005343F08053C4F80039D4F87E
:10462400003943F00443C4F80039002003B0F0BD5E
:104634001D6905EA0C051D611D6935401D610D6983
:104644008E6867B9B54288BF0E611D6945F40025BF
:104654001D610D691E69C5F312053543C9E735446B
:10466400013DB5FBF6F5474FD3F810C0AEB207EAEB
:10467400C54545EA0C051D610D79012DE9D11D697A
:1046840025F0C0451D611F69750705F0C0453D4310
:10469400DEE7D4F8003943F00443C4F800390B7959
:1046A400012B0DD00B69002BBFD001230A78D0F861
:1046B400344802F00F0293402343C0F83438B4E77F
:1046C400D0F8083813F4807FD4F800390CBF43F0D5
:1046D400005343F08053C4F8003900920B8A0A78DF
:1046E400C96803F050F8A0E7D4F8105B04F5306310
:1046F40005EA0C051D611D6935401D610E698D6853
:104704003FBB06B10D610D621E69C5F31205354349
:104714001D611D6945F40025012A1D6102D1CA6885
:1047240002B15A610B79012B0CD1D0F8083813F47B
:10473400807FD4F8003B0CBF43F0005343F0805318
:10474400C4F8003BD4F8003B43F00443C4F8003BF6
:104754006BE7002ED8D02E44013EB6FBF5F6B6B278
:1047640075430D62074D1F6905EAC6453D431D614A
:104774000D6A1E69C5F312053543CDE7FFFF07E057
:104784000000F8FF0000F81F30B5114C056C00F56F
:104794003063A54203D9D0F8004B002C16DB00246B
:1047A4001C611C69012944F400241C611C6944F047
:1047B40018041C611C6944F0C0441C6101BF5A61A7
:1047C400D0F8003B43F08023C0F8003B002030BD0C
:1047D4000A30544FA8B1304BDA6802F44032B2F5D3
:1047E400403F10D12D4B984251D92D4B984250D96E
:1047F4002C4B984235D92C4B984216D92B4B9842C6
:1048040031D901207047DA6802F44032B2F5003F32
:104814000DD1274B98423AD9264B984239D9264B89
:1048240098421ED9254B9842EBD803201CE0DB6844
:1048340003F44033B3F5803F0AD1214B984226D983
:104844001B4B984225D91F4B98420AD9194BEAE7CA
:104854001D4B98421BD91D4B98421AD91C4B9842A8
:10486400CFD8022000E004201A4A136823F00F0373
:1048740003431360136803F00F0398420EBF03460B
:10488400136803F00F03C01A18BF012070470020FB
:10489400EAE70120E8E700BF000802460048E80113
:1048A4000090D00300D8B8050020A107006889094A
:1048B40040787D0180F0FA02C068780400E1F505D3
:1048C40020BCBE0060343C0200127A000024F400D4
:1048D40000366E010020024038B5EFF31185102335
:1048E40083F31288BFF36F8F064B9C6803F017F8AD
:1048F40085F31188BFF36F8F2046BDE83840FDF77C
:10490400EDBC00BF2010002038B50A4B53F82040FE
:10491400013053F82050A54200D838BD606830B14A
:10492400037EDB0701D402F0CFFF0834F3E72368EA
:104934009847FAE740860008012270B5294B032006
:1049440086B01A70FFF7E0FF01F0C2F80420FFF709
:10495400DBFF254C254D2646AE4204F1300410D32E
:1049640000F052FD204C224EAC4226D300F060FDF4
:10497400FCF74CF81F4A137B23F00103137306B0B2
:1049840070BD54F80C3C059354F8103C049354F84F
:10499400143C039354F8183C029354F81C3C0193C0
:1049A40054F8203C009354E90A2354E90C0100F024
:1049B40039FB54F8303C5E65CDE7D4E90A23B3F102
:1049C400FF3F08BFB2F1FF3F05D052EA0301206860
:1049D40003D100F0E9FD3034C6E73146183000F069
:1049E40071FFF8E7671000206883000868830008F7
:1049F400157B000848030020702370B5134E012274
:104A040003FB0066002386B0CDE904230F22019343
:104A1400CDE9023214234FF4A0720D4D0D4903FB6E
:104A24000055044602FB00110B4B3046009500F084
:104A3400F9FA737B2C7423F004037373074B01346A
:104A440003EBC423EE606B6006B070BDD802002097
:104A540020100020701C0020297900087014002008
:104A6400BFB50020FFF750FF244B83F308880024D0
:104A7400F023234D234F85F82230EC772C766C7687
:104A8400AC7685F820406B6A43F4E0236B62FDF753
:104A9400F5FBFDF70FFD4FF0FF331B48AB62EB62F4
:104AA40000F024FBFCF752F80120FFF72DFF022051
:104AB400164DFFF729FF00F0EFFC154B15495D611A
:104AC400154B4FF48062059301232846CDE9034337
:104AD400CDE901443B46009400F0A4FA06466A7B03
:104AE400284622F004026A7302F0E6FF2046FFF72C
:104AF40083FF3A4631462846FDF7C0FC701C00206F
:104B040000ED00E03D490008B80300204803002000
:104B140020100020B01D0020F48B00082DE9F34183
:104B2400044617461E46EFF31188102383F31288B8
:104B3400BFF36F8FC368334A7BB180689168884242
:104B440019D057EA060318D188F31188BFF36F8F81
:104B54006FF00F0002B0BDE8F081916891F90E107A
:104B64000133E36093682161A36088F31188BFF384
:104B74006F8F0020EEE72169F2E791F90E1090F9AA
:104B84000E306FF07E029942A8BF19469142B8BF19
:104B940011468B422DDD02F0D0FE054622464146E9
:104BA400CDE90076184800F075FB0028E1D0EFF35A
:104BB4001186102383F31288BFF36F8FA068D0B1DE
:104BC400236821699C420AD04BB193F90E30994273
:104BD400A8BF19466FF07E039942B8BF194602F088
:104BE400ACFE40B13146084800F0E8FB6FF00A0023
:104BF400B0E70025D2E7002DF4D186F31188BFF386
:104C04006F8FF3E72010002068100020F8B5836848
:104C14000546002B3FD0234A926893423ED1C36895
:104C2400012B03D9013BC3600020F8BDEFF31187CA
:104C3400102383F31288BFF36F8F0169806802F039
:104C44007CFE2C68A54207D10023C5E9023387F313
:104C54001188BFF36F8FE7E7002CF5D0D4E9003259
:104C6400002613605A60637BC4E9006623F00203E4
:104C74006373A66004F1180002F0B7FFAC6094F906
:104C84000E3020462B61E66602F016FF39460648D0
:104C940000F094FBC8E76FF01500C6E74FF0FF3053
:104CA400C3E700BF201000206810002070B5EFF3A8
:104CB4001186102383F31288BFF36F8F0468A04218
:104CC4001AD0CCB1D4E90032002513605A60637B5A
:104CD400C4E9005523F002036373A56004F11800CE
:104CE40002F083FF2046E56602F0E6FE3146BDE8A9
:104CF4007040074800F062BBD0E902329A4218BF04
:104D04000133836086F31188BFF36F8F70BD00BFDA
:104D14006810002013B5EFF31181102484F3128876
:104D2400BFF36F8F846844B1013C846081F31188C0
:104D3400BFF36F8F002002B010BD52EA030406D106
:104D440081F31188BFF36F8F6FF00F00F3E7CDE9A4
:104D540000230246014800F09DFAECE768100020A9
:104D64002DE9FF41044610274C4EEFF3118887F3D9
:104D74001288BFF36F8F656FF5B9022104F18C00BF
:104D840002F0EFFD002865D004F184050022012122
:104D9400284602F0F1FE0028F8D100234FF0FF323C
:104DA40002934FF0FF334146CDE900233C4804F120
:104DB4007C0200F0C3FCD8E7A26F2B6895426367BE
:104DC40008BFA367D4F88C3043F00203C4F88C30D6
:104DD400EB6823F0040343F00103EB606B6888F392
:104DE4001188BFF36F8F28469847EFF3118887F334
:104DF4001288BFF36F8FEB68D80623F0010236D414
:104E0400EA60EB689A0716D5306823F00203EB607A
:104E140088B10021036870B14268954235D10368B6
:104E240069BB72683360824200D17360002340F82A
:104E3400083BFFF73BFFD4F88C3023F00203C4F89F
:104E44008C3088F31188BFF36F8FDB058DD400F0AD
:104E54002BFB8AE7D4F88C30D9069ED5C4F88C0095
:104E640088F31188BFF36F8F04B0BDE8F08123F09D
:104E74001103EB6005F11000FFF718FFC1E70B60A9
:104E84007368834208BF7160D0E723B11A68014692
:104E940018461346BFE71A46F9E700BF4010002042
:104EA40068100020F8B5C36804469A070F46C3F398
:104EB40040062DD45B071BD40B680BB983680B60C9
:104EC400E368DD0742BFA36802263B603D6858BF24
:104ED4000126002D39D01E4B9A682B6F9A420AD0B6
:104EE400D5F88C30D807C3F3800214D46FF01206BF
:104EF40000233B6024E002F09CFDD5F88C300028B0
:104F0400F0D1D907C3F3C002F0D552B15B0708D47E
:104F14006FF00F06ECE7002AFAD1C3F3C003002BAD
:104F2400F6D100232360AB6F63B9C5E91D4428465D
:104F340002F022FDE36843F00403E3603B68A360EE
:104F44003046F8BD1C60AC67F1E76FF01506CFE79B
:104F540020100020F0B50446002089B0C4E91D00EB
:104F64000E9D04F17C00C4E91F0004F18400C4E92F
:104F740021004DB32879002840F2011008BF012018
:104F8400C4F88C0000204FF0FF364FF0FF37CDE916
:104F94000330CDE90100CDE9066720460B4B0094B0
:104FA40000F078F855B1296811B1204602F047FDA8
:104FB4006B791BB1237B43F001032373204600F07C
:104FC400F3FA246709B0F0BD0120D9E7654D000864
:104FD40037B501900846EFF31184102181F312884C
:104FE400BFF36F8FC16811F01E0F16D153EA02058B
:104FF40008D101A9FFF756FF84F31188BFF36F8F1F
:1050040003B030BD41F00801C160019910308161E5
:10501400034900F057FC0120EEE70020ECE700BF55
:105024008B7900082DE9FF41984600F15803C0E947
:1050340016330E9B002603730423D51D437325F0FA
:1050440007050D9B0D440F4683732946C0E9066688
:105054008660C6730446FCF703FF0C9B073002937B
:105064000B9B20F0070001930A9B2D1A00932A46FC
:10507400434639462046FDF7E5F9054B66659B68CE
:1050840003B11B6E2846236604B0BDE8F08100BF5F
:1050940020100020F0B5002587B00595109DDDE9AE
:1050A400127604950F9D044603950E9D02950D9D61
:1050B40001950C9D0095FFF7B5FFB6F1FF3F08BFC2
:1050C400B7F1FF3F05D056EA070305D1204600F0AB
:1050D4006BFA204607B0F0BD3A46334604F1180097
:1050E400014900F0EFFBF4E7157B000840F20113DF
:1050F400838100230366014B9860704720100020D1
:105104006FF00A01084A9368D966084998664B68A3
:1051140043F080534B60002383F31188BFF36F8FF8
:105124009368D86E704700BF2010002000ED00E0A7
:1051340070B590F90D20437B002A36DBD90634D1B3
:105144001B4C63F07F032246437352F8183FE16916
:10515400934207D1C0E900210860E06111E099425F
:10516400F8D01B68002BF5D090F90E5093F90E601F
:10517400B542F4D0AE42F2DD5968C0E900310860AE
:105184005860A569954200D005B9E568A3685A7BC3
:10519400D20604D1DA897F2A01D9AA6932B1AB4295
:1051A40002D0284600F00AFB656170BD6361FCE72C
:1051B4002010002038B590F90D200146002A437BC9
:1051C40004DA03F07F03437302F03CFC0D4D2A46DE
:1051D40052F8184FAB68944200D004B9EC688B4283
:1051E40007D05A7BD20604D1DA897F2A01D9A26971
:1051F4002AB1A34202D0204600F0E0FA23466B61B4
:1052040038BD00BF20100020B3F1FF3F08BFB2F14A
:10521400FF3F03D00249183000F054BB704700BF71
:10522400157B000838B5194CA168E0690B68814208
:1052340014BF1A46002249680B605960A368E169EB
:105244002AB9134AC3E900210B60E3610CE093F926
:105254000E0092F90E50A84214D0854212DD516816
:10526400C3E900210B605360A569094B9D4200D03E
:1052740005B9E568A3689D4202D0284600F09EFA6D
:10528400656138BD9142DCD01268D9E72010002056
:1052940038100020F8B5DDE906670D4B0C46986818
:1052A40011460C4A1060EFF31182102282F3128827
:1052B400BFF36F8F9D68284602F0D6FB284632461E
:1052C4003B46FFF7A1FF2046BDE8F840FFF718BFB3
:1052D4002010002048100020F8B50446EFF3118791
:1052E400102383F31288BFF36F8F437B49B203F01B
:1052F4001F02002A0CBF0126002639D103F07F03C8
:105304002D4D437302F09EFB2A46437B817363F069
:105314007F03437352F8183F934227D1E869C4E9E5
:1053240000200460EC610FE09842F8D01B68002B69
:10533400F5D093F90EC06145F6D08C45F4DD59687B
:10534400C4E900310C605C60AC69944200D004B9DB
:10535400EC68AB689C4202D0204600F02FFA6C61E6
:1053640087F31188BFF36F8F3046F8BDE869DEE735
:105374009B071ED5856802F065FB81732B689D42EF
:1053840009D16B68C4E900531C606C60E8E76A6883
:105394009342F6D01B68002BF3D093F90E20914270
:1053A400F5D08A42F3DD5A68C4E9003214605C60C7
:1053B400D6E78173D4E700BF2010002049B9EFF38A
:1053C400058030B9054B5A699B689A4201D0FFF7B2
:1053D40097BE81F31188BFF36F8F704720100020B0
:1053E400034648B9EFF3058232B9064A5169926817
:1053F400914201D0FFF784BE83F31188BFF36F8F0E
:10540400704700BF20100020EFF31181102383F3B5
:105414001288BFF36F8F054B9A68D37B013BD3731C
:1054240081F31188BFF36F8F704700BF20100020F5
:1054340070B5EFF31186102383F31288BFF36F8FD7
:10544400144DAB68DA7B0132DA732A4652F8184FEE
:10545400944200D004B9EC685A7BD20604D1DA89AC
:105464007F2A01D9A2692AB1A34202D0204600F0C2
:10547400A5F923466B6186F31188BFF36F8FEFF3B1
:105484001180102383F31288BFF36F8FBDE870403F
:10549400FFF7A6BF20100020024B03F11802C3E956
:1054A400062270472010002070B5EFF311861023F8
:1054B40083F31288BFF36F8F1B4CA168E0690B68FC
:1054C400814214BF1A46002249680B605960A368E0
:1054D400E1692AB9154AC3E900210B60E3610CE0D4
:1054E40093F90E0092F90E50A84218D0854216DDA9
:1054F4005168C3E900210B605360A5690B4B9D42C1
:1055040000D005B9E568A3689D4202D0284600F0A2
:1055140055F965613046BDE87040FFF7F1BD8A4238
:10552400D8D01268D5E700BF201000203810002022
:10553400F8B550EA010306460C4603D1FFF7B4FF61
:105544000020F8BDEFF31187102383F31288BFF313
:105554006F8F124D124BA8681860FFF72BFEA868D6
:10556400234632460F49183000F0ACF9AA680446C5
:10557400537B384643F004035373FFF7C1FDAB6814
:10558400D3E90A23B3F1004F08BF002AD8D102F0AF
:1055940054FB201A20EAE070D3E700BF201000205B
:1055A40048100020157B000838B50446EFF3118538
:1055B400102383F31288BFF36F8F437B5B070FD5F0
:1055C400183002F012FB637B204623F0040363735C
:1055D400FFF7AEFD2946BDE838400448FFF7EEBEAC
:1055E40085F31188BFF36F8F38BD00BF68100020AA
:1055F400014B9868704700BF201000202DE9F84344
:105604000446077BEFF31185102383F31288BFF35D
:105614006F8F437B190705D585F31188BFF36F8F0F
:10562400BDE8F883D90943F008025DD14273A36849
:1056340013B1204602F00EFA04F1180002F0D5FA74
:10564400A66D04F15808B04511D04FF0000976B1A9
:10565400304602F0FFF906F1180002F0C6FA3046AF
:10566400C6F86C90FFF764FDA66DB045EFD1DFF886
:10567400C080D8F808309C423ED1EFF30589B9F1D7
:10568400000918BF4FF00109D8F81860294A96425A
:1056940000D00EB9D8F80C60B34202D0304600F006
:1056A4008DF82046C8F8146000F04DFFB9F1000FE2
:1056B40002D02148FFF71AFDD8F808309C4231D1B6
:1056C400EFF3058373BB227BD20718D42846FFF778
:1056D40017FDFB07A4D5002383F31188BFF36F8F55
:1056E4000423184602DF9BE703F07F0343F008031B
:1056F400437302F0A7F99AE74FF00009C4E785F372
:105704001188BFF36F8F83F31188BFF36F8F042366
:10571400184602DFEFF31180102383F31288BFF3DE
:105724006F8FD4E785F31188BFF36F8FD1E700BF84
:105734002010002038100020B8030020D3B5DDE984
:105744000667089CCDE90067FFF7A4FD1CB1034B75
:105754009B681B69236002B0D0BD00BF20100020ED
:105764000122044BC01A044BC0105843034B1A5473
:10577400704700BF28040020ABAAAAAA6810002022
:10578400C3897F2B12D80A4B1B6863B1094B90F96C
:105794000E201B689A4209DB437BDB0606D1064BCD
:1057A400C31A18BF012303F0010070470023FAE76E
:1057B400200100204C100020D802002070B50E4BB0
:1057C4000E4C1E7C054606EB460304EBC304204640
:1057D40002F00BFA00220A4B28469A55FFF7D0FF35
:1057E40048B1084B2046BDE870401A680649013AA2
:1057F400D31700F067B870BD2010002028040020E3
:1058040068100020200100206557000838B5EFF328
:105814001185102383F31288BFF36F8F0F4B104A47
:105824009C681068A04206D1FFF7C8FF85F3118871
:10583400BFF36F8F38BD00211B7C1160094AD35C14
:10584400002BF3D02046FFF79BFF0028EED0637BAC
:10585400DB0601D1FFF7E6FC2046E5E72010002037
:105864004810002068100020024B1868984208BFB6
:105874000020704724010020034B1B680BB9FEF77E
:1058840061B80020704700BF5010002030B570B1DF
:105894000B4B5B6898420AD0036843B1D3E90421F7
:1058A400D0E90445121941EB0501C3E90421D0E90B
:1058B400003213605A600023C0E9003330BD00BFDA
:1058C40024010020B3F1FF3F08BFB2F1FF3F2DE9EF
:1058D400F84F0446994615461F467AD08160EFF387
:1058E4001188102383F31288BFF36F8FB9F1000F6F
:1058F400DFF8E4A020DBFFF7BFFFDAE9002701357A
:1059040049F100092D1849EBE07306464FF00109EF
:10591400C4E90453AD1843EB0707FFF7A5FF03469B
:10592400DFF8B8E0DEF804A0EBB9C4E900EACAF88D
:105934000040CEF8044028E06FF00103DAE90012D9
:105944005B1A4FF0FF3161EB02025B1B62EB090251
:10595400012B72F10001BCBF012300224FF00009AA
:10596400C0E90432D9E7D3E9041CD4E904208A420B
:1059740070EB0C0B24DA891A5A686CEB0000C3E94B
:105984000410C4E9003214605C60FFF76DFF8442C8
:105994000ED1134B1B685BB9B9F1000F02D1FFF7AD
:1059A4006BFF0646304602F009F90021FDF74CFF73
:1059B40088F31188BFF36F8F28463946BDE8F88F06
:1059C400521A60EB0C009A45C4E90420ADD01B6860
:1059D400AAE700252F46EFE7400400202401002019
:1059E400501000202DE9F047EFF31185102383F3C5
:1059F4001288BFF36F8FDFF8A0900026C9F800006B
:105A04000027FFF731FFDFF89480D9F80030D8E998
:105A140000ECD91750B1D0E90442A34271EB020A59
:105A24001BDAE41A62EB0102C0E90442002413EB1E
:105A34000E034CEB01012046C8E90031C9F80040CF
:105A440002F0BCF82146FDF7FFFE85F31188BFF391
:105A54006F8FBDE8F047FFF7D9BE14EB0E024CEB95
:105A6400E473C0E90467C8E90023FFF70FFF85F377
:105A74001188BFF36F8F83689847EFF31185102364
:105A840083F31288BFF36F8FD9F800301B1BC9F85A
:105A94000030FFF7E9FEB8E7501000204004002072
:105AA40010B5EFF31184102383F31288BFF36F8FC3
:105AB400FFF7E2FE0346054AD2E90001181841EB5C
:105AC400E37184F31188BFF36F8F10BD400400208D
